{
  "contractName": "MyBank",
  "abi": [
    {
      "inputs": [],
      "payable": true,
      "stateMutability": "payable",
      "type": "constructor"
    },
    {
      "anonymous": false,
      "inputs": [
        {
          "indexed": true,
          "internalType": "address",
          "name": "accountAddress",
          "type": "address"
        },
        {
          "indexed": false,
          "internalType": "uint256",
          "name": "amount",
          "type": "uint256"
        }
      ],
      "name": "LogDepositMade",
      "type": "event"
    },
    {
      "constant": true,
      "inputs": [],
      "name": "owner",
      "outputs": [
        {
          "internalType": "address",
          "name": "",
          "type": "address"
        }
      ],
      "payable": false,
      "stateMutability": "view",
      "type": "function"
    },
    {
      "constant": false,
      "inputs": [],
      "name": "enroll",
      "outputs": [
        {
          "internalType": "uint256",
          "name": "",
          "type": "uint256"
        }
      ],
      "payable": false,
      "stateMutability": "nonpayable",
      "type": "function"
    },
    {
      "constant": false,
      "inputs": [],
      "name": "deposit",
      "outputs": [
        {
          "internalType": "uint256",
          "name": "",
          "type": "uint256"
        }
      ],
      "payable": true,
      "stateMutability": "payable",
      "type": "function"
    },
    {
      "constant": false,
      "inputs": [
        {
          "internalType": "uint256",
          "name": "withdrawAmount",
          "type": "uint256"
        }
      ],
      "name": "withdraw",
      "outputs": [
        {
          "internalType": "uint256",
          "name": "remainBal",
          "type": "uint256"
        }
      ],
      "payable": false,
      "stateMutability": "nonpayable",
      "type": "function"
    },
    {
      "constant": true,
      "inputs": [],
      "name": "balance",
      "outputs": [
        {
          "internalType": "uint256",
          "name": "",
          "type": "uint256"
        }
      ],
      "payable": false,
      "stateMutability": "view",
      "type": "function"
    },
    {
      "constant": true,
      "inputs": [],
      "name": "depositsBalance",
      "outputs": [
        {
          "internalType": "uint256",
          "name": "",
          "type": "uint256"
        }
      ],
      "payable": false,
      "stateMutability": "view",
      "type": "function"
    }
  ],
  "bytecode": "0x60806040526801a055690d9db800003414610082576040517f08c379a000000000000000000000000000000000000000000000000000000000815260040180806020018281038252601f8152602001807f33302045544820696e697469616c2066756e64696e672072657175697265640081525060200191505060405180910390fd5b33600260006101000a81548173ffffffffffffffffffffffffffffffffffffffff021916908373ffffffffffffffffffffffffffffffffffffffff160217905550600080819055506104ff806100d96000396000f3fe6080604052600436106100555760003560e01c8063138fbe711461005a5780632e1a7d4d146100855780638da5cb5b146100d4578063b69ef8a81461012b578063d0e30db014610156578063e65f2a7e14610174575b600080fd5b34801561006657600080fd5b5061006f61019f565b6040518082815260200191505060405180910390f35b34801561009157600080fd5b506100be600480360360208110156100a857600080fd5b81019080803590602001909291905050506101a7565b6040518082815260200191505060405180910390f35b3480156100e057600080fd5b506100e96102cb565b604051808273ffffffffffffffffffffffffffffffffffffffff1673ffffffffffffffffffffffffffffffffffffffff16815260200191505060405180910390f35b34801561013757600080fd5b506101406102f1565b6040518082815260200191505060405180910390f35b61015e610338565b6040518082815260200191505060405180910390f35b34801561018057600080fd5b5061018961041a565b6040518082815260200191505060405180910390f35b600047905090565b6000600160003373ffffffffffffffffffffffffffffffffffffffff1673ffffffffffffffffffffffffffffffffffffffff1681526020019081526020016000205482116102845781600160003373ffffffffffffffffffffffffffffffffffffffff1673ffffffffffffffffffffffffffffffffffffffff168152602001908152602001600020600082825403925050819055503373ffffffffffffffffffffffffffffffffffffffff166108fc839081150290604051600060405180830381858888f19350505050158015610282573d6000803e3d6000fd5b505b600160003373ffffffffffffffffffffffffffffffffffffffff1673ffffffffffffffffffffffffffffffffffffffff168152602001908152602001600020549050919050565b600260009054906101000a900473ffffffffffffffffffffffffffffffffffffffff1681565b6000600160003373ffffffffffffffffffffffffffffffffffffffff1673ffffffffffffffffffffffffffffffffffffffff16815260200190815260200160002054905090565b600034600160003373ffffffffffffffffffffffffffffffffffffffff1673ffffffffffffffffffffffffffffffffffffffff168152602001908152602001600020600082825401925050819055503373ffffffffffffffffffffffffffffffffffffffff167fa8126f7572bb1fdeae5b5aa9ec126438b91f658a07873f009d041ae690f3a193346040518082815260200191505060405180910390a2600160003373ffffffffffffffffffffffffffffffffffffffff1673ffffffffffffffffffffffffffffffffffffffff16815260200190815260200160002054905090565b600060036000541015610485576000808154809291906001019190505550678ac7230489e80000600160003373ffffffffffffffffffffffffffffffffffffffff1673ffffffffffffffffffffffffffffffffffffffff168152602001908152602001600020819055505b600160003373ffffffffffffffffffffffffffffffffffffffff1673ffffffffffffffffffffffffffffffffffffffff1681526020019081526020016000205490509056fea265627a7a7231582017766d32475e8725aa1f49468b56864f798b28fda4e852c803d3f3a3f51fcca164736f6c63430005100032",
  "source": "pragma solidity ^0.5.8;\n\ncontract MyBank {\n\tuint private clientNum;\n\tmapping (address => uint) private balances;\n\taddress public owner;\n\n\tevent LogDepositMade(address indexed accountAddress, uint amount);\n\n\tconstructor() public payable {\n\t\trequire(msg.value==30 ether, \"30 ETH initial funding required\");\n\t\towner = msg.sender;\n\t\tclientNum=0;\n\t}\n\n\tfunction enroll() public returns (uint) {\n\t\tif (clientNum < 3) {\n\t\t\tclientNum++;\n\t\t\tbalances[msg.sender]=10 ether;\n\t\t}\n\t\treturn balances[msg.sender];\n\n\t}\n\n\tfunction deposit() public payable returns (uint){\n\t\tbalances[msg.sender] += msg.value;\n\t\temit LogDepositMade(msg.sender, msg.value);\n\t\treturn balances[msg.sender];\n\t}\n\n\tfunction withdraw(uint withdrawAmount) public returns (uint remainBal){\n\t\tif (withdrawAmount <= balances[msg.sender]){\n\t\t\tbalances[msg.sender]-=withdrawAmount;\n\t\t\tmsg.sender.transfer(withdrawAmount);\n\t\t}\n\t\treturn balances[msg.sender];\n\t}\n\n\tfunction balance() public view returns (uint) {\n\t\treturn balances[msg.sender];\n\t}\n\n\tfunction depositsBalance() public view returns (uint){\n\t\treturn address(this).balance;\n\t}\n}\n\n",
  "sourcePath": "C:\\Users\\ioannis\\Desktop\\my_bank\\contracts\\MyBank.sol",
  "compiler": {
    "name": "solc",
    "version": "0.5.16+commit.9c3226ce.Emscripten.clang"
  },
  "schemaVersion": "3.4.16",
  "updatedAt": "2024-12-06T16:48:03.930Z",
  "networkType": "ethereum",
  "devdoc": {
    "methods": {}
  },
  "userdoc": {
    "methods": {}
  }
}