{
  "contractName": "Counter",
  "abi": [
    {
      "inputs": [],
      "payable": false,
      "stateMutability": "nonpayable",
      "type": "constructor"
    },
    {
      "constant": true,
      "inputs": [],
      "name": "count",
      "outputs": [
        {
          "internalType": "int256",
          "name": "",
          "type": "int256"
        }
      ],
      "payable": false,
      "stateMutability": "view",
      "type": "function"
    },
    {
      "constant": false,
      "inputs": [
        {
          "internalType": "int256",
          "name": "value",
          "type": "int256"
        }
      ],
      "name": "add",
      "outputs": [],
      "payable": false,
      "stateMutability": "nonpayable",
      "type": "function"
    },
    {
      "constant": false,
      "inputs": [
        {
          "internalType": "int256",
          "name": "value",
          "type": "int256"
        }
      ],
      "name": "subtract",
      "outputs": [],
      "payable": false,
      "stateMutability": "nonpayable",
      "type": "function"
    },
    {
      "constant": false,
      "inputs": [],
      "name": "reset",
      "outputs": [],
      "payable": false,
      "stateMutability": "nonpayable",
      "type": "function"
    }
  ],
  "bytecode": "0x608060405234801561001057600080fd5b50600560008190555061012e806100286000396000f3fe6080604052348015600f57600080fd5b506004361060465760003560e01c806306661abd14604b57806387db03b7146067578063ae0f6166146092578063d826f88f1460bd575b600080fd5b605160c5565b6040518082815260200191505060405180910390f35b609060048036036020811015607b57600080fd5b810190808035906020019092919050505060cb565b005b60bb6004803603602081101560a657600080fd5b810190808035906020019092919050505060dd565b005b60c360ef565b005b60005481565b80600080828254019250508190555050565b80600080828254039250508190555050565b600560008190555056fea265627a7a7231582082a2e912cc278793156a07851f0dea477731ac9c27fa65f59b7848ca009ef70264736f6c63430005110032",
  "source": "pragma solidity ^0.5.0;\n\ncontract Counter {\n    // State variable to store the counter value\n    int256 public count;\n\n    // Constructor to set the initial value\n    constructor() public {\n        count = 5; // Initial value\n    }\n\n    // Function to add a value to the counter\n    function add(int256 value) public {\n        count += value;\n    }\n\n    // Function to subtract a value from the counter\n    function subtract(int256 value) public {\n        count -= value;\n    }\n\n    // Function to reset the counter to the initial value\n    function reset() public {\n        count = 5;\n    }\n}\n",
  "sourcePath": "C:\\Users\\ioannis\\Desktop\\CounterContract\\contracts\\Counter.sol",
  "compiler": {
    "name": "solc",
    "version": "0.5.17+commit.d19bba13.Emscripten.clang"
  },
  "schemaVersion": "3.4.16",
  "updatedAt": "2024-12-01T12:34:30.363Z",
  "networkType": "ethereum",
  "devdoc": {
    "methods": {}
  },
  "userdoc": {
    "methods": {}
  }
}