{
  "contractName": "Payments",
  "abi": [
    {
      "inputs": [],
      "payable": false,
      "stateMutability": "nonpayable",
      "type": "constructor"
    },
    {
      "payable": true,
      "stateMutability": "payable",
      "type": "fallback"
    },
    {
      "constant": true,
      "inputs": [],
      "name": "firstPaymentMade",
      "outputs": [
        {
          "internalType": "bool",
          "name": "",
          "type": "bool"
        }
      ],
      "payable": false,
      "stateMutability": "view",
      "type": "function"
    },
    {
      "constant": true,
      "inputs": [],
      "name": "firstTransferTime",
      "outputs": [
        {
          "internalType": "uint256",
          "name": "",
          "type": "uint256"
        }
      ],
      "payable": false,
      "stateMutability": "view",
      "type": "function"
    },
    {
      "constant": true,
      "inputs": [],
      "name": "owner",
      "outputs": [
        {
          "internalType": "address payable",
          "name": "",
          "type": "address"
        }
      ],
      "payable": false,
      "stateMutability": "view",
      "type": "function"
    },
    {
      "constant": true,
      "inputs": [],
      "name": "recipient",
      "outputs": [
        {
          "internalType": "address payable",
          "name": "",
          "type": "address"
        }
      ],
      "payable": false,
      "stateMutability": "view",
      "type": "function"
    },
    {
      "constant": true,
      "inputs": [],
      "name": "secondTransferTime",
      "outputs": [
        {
          "internalType": "uint256",
          "name": "",
          "type": "uint256"
        }
      ],
      "payable": false,
      "stateMutability": "view",
      "type": "function"
    },
    {
      "constant": true,
      "inputs": [],
      "name": "thirdTransferTime",
      "outputs": [
        {
          "internalType": "uint256",
          "name": "",
          "type": "uint256"
        }
      ],
      "payable": false,
      "stateMutability": "view",
      "type": "function"
    },
    {
      "constant": false,
      "inputs": [],
      "name": "makeFirstPayment",
      "outputs": [],
      "payable": false,
      "stateMutability": "nonpayable",
      "type": "function"
    },
    {
      "constant": false,
      "inputs": [],
      "name": "transferSecond",
      "outputs": [],
      "payable": false,
      "stateMutability": "nonpayable",
      "type": "function"
    },
    {
      "constant": false,
      "inputs": [],
      "name": "transferThird",
      "outputs": [],
      "payable": false,
      "stateMutability": "nonpayable",
      "type": "function"
    }
  ],
  "bytecode": "0x60806040526000600560006101000a81548160ff02191690831515021790555034801561002b57600080fd5b50737dd6c89413f552e059879d51038fad16ced2d1a76000806101000a81548173ffffffffffffffffffffffffffffffffffffffff021916908373ffffffffffffffffffffffffffffffffffffffff16021790555073ee4d083133856a76f56efc667dd1d88610d44971600160006101000a81548173ffffffffffffffffffffffffffffffffffffffff021916908373ffffffffffffffffffffffffffffffffffffffff160217905550426002819055506078420160038190555060b44201600481905550610534806100ff6000396000f3fe6080604052600436106100865760003560e01c8063763e6f0911610059578063763e6f091461014c5780638da5cb5b146101635780639386fe22146101ba578063a3f73779146101e9578063a7a7648d1461021457610086565b80630e85fa721461008857806313d36098146100b357806345195e87146100de57806366d003ac146100f5575b005b34801561009457600080fd5b5061009d61022b565b6040518082815260200191505060405180910390f35b3480156100bf57600080fd5b506100c8610231565b6040518082815260200191505060405180910390f35b3480156100ea57600080fd5b506100f3610237565b005b34801561010157600080fd5b5061010a6102c5565b604051808273ffffffffffffffffffffffffffffffffffffffff1673ffffffffffffffffffffffffffffffffffffffff16815260200191505060405180910390f35b34801561015857600080fd5b506101616102eb565b005b34801561016f57600080fd5b506101786103d6565b604051808273ffffffffffffffffffffffffffffffffffffffff1673ffffffffffffffffffffffffffffffffffffffff16815260200191505060405180910390f35b3480156101c657600080fd5b506101cf6103fb565b604051808215151515815260200191505060405180910390f35b3480156101f557600080fd5b506101fe61040e565b6040518082815260200191505060405180910390f35b34801561022057600080fd5b50610229610414565b005b60025481565b60045481565b600160009054906101000a900473ffffffffffffffffffffffffffffffffffffffff1673ffffffffffffffffffffffffffffffffffffffff166108fc674563918244f400009081150290604051600060405180830381858888f193505050501580156102a7573d6000803e3d6000fd5b506001600560006101000a81548160ff021916908315150217905550565b600160009054906101000a900473ffffffffffffffffffffffffffffffffffffffff1681565b600354421015610363576040517f08c379a000000000000000000000000000000000000000000000000000000000815260040180806020018281038252601e8152602001807f32206d696e757465732068617665206e6f7420706173736564207965742e000081525060200191505060405180910390fd5b600160009054906101000a900473ffffffffffffffffffffffffffffffffffffffff1673ffffffffffffffffffffffffffffffffffffffff166108fc674563918244f400009081150290604051600060405180830381858888f193505050501580156103d3573d6000803e3d6000fd5b50565b6000809054906101000a900473ffffffffffffffffffffffffffffffffffffffff1681565b600560009054906101000a900460ff1681565b60035481565b60045442101561048c576040517f08c379a000000000000000000000000000000000000000000000000000000000815260040180806020018281038252601e8152602001807f33206d696e757465732068617665206e6f7420706173736564207965742e000081525060200191505060405180910390fd5b600160009054906101000a900473ffffffffffffffffffffffffffffffffffffffff1673ffffffffffffffffffffffffffffffffffffffff166108fc678ac7230489e800009081150290604051600060405180830381858888f193505050501580156104fc573d6000803e3d6000fd5b5056fea265627a7a723158204b4a968be48a3171c3ca598c78e125f54190ddfc5d4daa7772c97220ca622b7864736f6c63430005100032",
  "source": "pragma solidity ^0.5.0;\n\ncontract Payments {\n    address payable public owner;\n    address payable public recipient;\n\n    uint public firstTransferTime;\n    uint public secondTransferTime;\n    uint public thirdTransferTime;\n\n    bool public firstPaymentMade = false;  // To ensure the first payment is made only once\n\n    // Constructor\n    constructor() public {\n        owner = 0x7dD6c89413f552e059879d51038FaD16ceD2d1A7;  // Owner address\n        recipient = 0xEe4d083133856a76F56EFC667DD1D88610d44971;  // Recipient address\n\n        // Set transfer times\n        firstTransferTime = now;\n        secondTransferTime = now + 2 minutes;\n        thirdTransferTime = now + 3 minutes;\n    }\n\n    // Function to make the first payment of 5 ETH\n    function makeFirstPayment() public {\n        // Perform the first payment of 5 ETH to the recipient\n        recipient.transfer(5 ether);\n\n        // Mark the first payment as made\n        firstPaymentMade = true;\n    }\n\n    // Function to transfer 5 ETH to the recipient after 2 minutes\n    function transferSecond() public {\n        require(now >= secondTransferTime, \"2 minutes have not passed yet.\");\n        recipient.transfer(5 ether);\n    }\n\n    // Function to transfer 10 ETH to the recipient after 3 minutes\n    function transferThird() public {\n        require(now >= thirdTransferTime, \"3 minutes have not passed yet.\");\n        recipient.transfer(10 ether);\n    }\n\n    // Fallback function to accept incoming ether\n    function() external payable {}\n}\n",
  "sourcePath": "C:\\Users\\ioannis\\Desktop\\PaymentsDemo\\contracts\\Payments.sol",
  "compiler": {
    "name": "solc",
    "version": "0.5.16+commit.9c3226ce.Emscripten.clang"
  },
  "schemaVersion": "3.4.16",
  "updatedAt": "2024-12-01T13:11:34.019Z",
  "networkType": "ethereum",
  "devdoc": {
    "methods": {}
  },
  "userdoc": {
    "methods": {}
  }
}