{
  "contractName": "TransferETH",
  "abi": [
    {
      "inputs": [
        {
          "internalType": "address payable",
          "name": "recipient",
          "type": "address"
        }
      ],
      "name": "transferETH",
      "outputs": [],
      "stateMutability": "payable",
      "type": "function",
      "payable": true
    }
  ],
  "bytecode": "0x608060405234801561001057600080fd5b5061020c806100206000396000f3fe60806040526004361061001e5760003560e01c8063d50f6bf014610023575b600080fd5b61003d600480360381019061003891906100f3565b61003f565b005b6802b5e3af16b188000034101561008b576040517f08c379a00000000000000000000000000000000000000000000000000000000081526004016100829061015c565b60405180910390fd5b8073ffffffffffffffffffffffffffffffffffffffff166108fc6802b5e3af16b18800009081150290604051600060405180830381858888f193505050501580156100da573d6000803e3d6000fd5b5050565b6000813590506100ed816101bf565b92915050565b60006020828403121561010557600080fd5b6000610113848285016100de565b91505092915050565b600061012960198361017c565b91507f496e73756666696369656e74204554482070726f7669646564000000000000006000830152602082019050919050565b600060208201905081810360008301526101758161011c565b9050919050565b600082825260208201905092915050565b60006101988261019f565b9050919050565b600073ffffffffffffffffffffffffffffffffffffffff82169050919050565b6101c88161018d565b81146101d357600080fd5b5056fea26469706673582212209fa2b346b7476d0f0eb034f403f49ed8fcb84c540d990b60580f55467c5cd52264736f6c63430008000033",
  "immutableReferences": {},
  "source": "// SPDX-License-Identifier: MIT\npragma solidity ^0.8.0;\n\ncontract TransferETH {\n    // The function to transfer 50 ETH\n    function transferETH(address payable recipient) public payable {\n        // Check if the sender has enough ETH to transfer\n        require(msg.value >= 50 ether, \"Insufficient ETH provided\");\n        \n        // Transfer the 50 ETH to the recipient\n        recipient.transfer(50 ether);\n    }\n}\n",
  "sourcePath": "C:\\Users\\ioannis\\Desktop\\PaymentsDemo\\contracts\\Payments.sol",
  "compiler": {
    "name": "solc",
    "version": "0.8.0+commit.c7dfd78e.Emscripten.clang"
  },
  "schemaVersion": "3.4.16",
  "updatedAt": "2024-12-01T13:17:12.089Z",
  "networkType": "ethereum",
  "devdoc": {
    "kind": "dev",
    "methods": {},
    "version": 1
  },
  "userdoc": {
    "kind": "user",
    "methods": {},
    "version": 1
  }
}