{
  "contractName": "TransferETHInInstallments",
  "abi": [
    {
      "inputs": [
        {
          "internalType": "address",
          "name": "_recipient",
          "type": "address"
        }
      ],
      "stateMutability": "nonpayable",
      "type": "constructor"
    },
    {
      "inputs": [],
      "name": "installmentAmount",
      "outputs": [
        {
          "internalType": "uint256",
          "name": "",
          "type": "uint256"
        }
      ],
      "stateMutability": "view",
      "type": "function",
      "constant": true
    },
    {
      "inputs": [],
      "name": "installmentsMade",
      "outputs": [
        {
          "internalType": "uint256",
          "name": "",
          "type": "uint256"
        }
      ],
      "stateMutability": "view",
      "type": "function",
      "constant": true
    },
    {
      "inputs": [],
      "name": "numInstallments",
      "outputs": [
        {
          "internalType": "uint256",
          "name": "",
          "type": "uint256"
        }
      ],
      "stateMutability": "view",
      "type": "function",
      "constant": true
    },
    {
      "inputs": [],
      "name": "recipient",
      "outputs": [
        {
          "internalType": "address",
          "name": "",
          "type": "address"
        }
      ],
      "stateMutability": "view",
      "type": "function",
      "constant": true
    },
    {
      "inputs": [],
      "name": "totalAmount",
      "outputs": [
        {
          "internalType": "uint256",
          "name": "",
          "type": "uint256"
        }
      ],
      "stateMutability": "view",
      "type": "function",
      "constant": true
    },
    {
      "inputs": [],
      "name": "transferInstallments",
      "outputs": [],
      "stateMutability": "payable",
      "type": "function",
      "payable": true
    },
    {
      "inputs": [],
      "name": "installmentsRemaining",
      "outputs": [
        {
          "internalType": "uint256",
          "name": "",
          "type": "uint256"
        }
      ],
      "stateMutability": "view",
      "type": "function",
      "constant": true
    }
  ],
  "bytecode": "0x60806040526802b5e3af16b188000060015567e74c03589600c00060025560038055600060045534801561003257600080fd5b5060405161066e38038061066e833981810160405281019061005491906100af565b806000806101000a81548173ffffffffffffffffffffffffffffffffffffffff021916908373ffffffffffffffffffffffffffffffffffffffff16021790555050610121565b6000815190506100a98161010a565b92915050565b6000602082840312156100c157600080fd5b60006100cf8482850161009a565b91505092915050565b60006100e3826100ea565b9050919050565b600073ffffffffffffffffffffffffffffffffffffffff82169050919050565b610113816100d8565b811461011e57600080fd5b50565b61053e806101306000396000f3fe6080604052600436106100705760003560e01c80637c8107b81161004e5780637c8107b8146100d55780638018990d146101005780638770998e1461012b578063e4e06c5a1461015657610070565b80631a39d8ef146100755780633477127d146100a057806366d003ac146100aa575b600080fd5b34801561008157600080fd5b5061008a610181565b604051610097919061039a565b60405180910390f35b6100a8610187565b005b3480156100b657600080fd5b506100bf61028e565b6040516100cc919061035f565b60405180910390f35b3480156100e157600080fd5b506100ea6102b2565b6040516100f7919061039a565b60405180910390f35b34801561010c57600080fd5b506101156102b8565b604051610122919061039a565b60405180910390f35b34801561013757600080fd5b506101406102cf565b60405161014d919061039a565b60405180910390f35b34801561016257600080fd5b5061016b6102d5565b604051610178919061039a565b60405180910390f35b60015481565b600354600454106101cd576040517f08c379a00000000000000000000000000000000000000000000000000000000081526004016101c49061037a565b60405180910390fd5b6000600254905060016003546101e39190610420565b600454141561020c576002546004546101fc91906103c6565b6001546102099190610420565b90505b60008054906101000a900473ffffffffffffffffffffffffffffffffffffffff1673ffffffffffffffffffffffffffffffffffffffff166108fc829081150290604051600060405180830381858888f19350505050158015610272573d6000803e3d6000fd5b506004600081548092919061028690610490565b919050555050565b60008054906101000a900473ffffffffffffffffffffffffffffffffffffffff1681565b60045481565b60006004546003546102ca9190610420565b905090565b60025481565b60035481565b6102e481610454565b82525050565b60006102f7602f836103b5565b91507f416c6c20696e7374616c6c6d656e7473206861766520616c726561647920626560008301527f656e207472616e736665727265642e00000000000000000000000000000000006020830152604082019050919050565b61035981610486565b82525050565b600060208201905061037460008301846102db565b92915050565b60006020820190508181036000830152610393816102ea565b9050919050565b60006020820190506103af6000830184610350565b92915050565b600082825260208201905092915050565b60006103d182610486565b91506103dc83610486565b9250817fffffffffffffffffffffffffffffffffffffffffffffffffffffffffffffffff0483118215151615610415576104146104d9565b5b828202905092915050565b600061042b82610486565b915061043683610486565b925082821015610449576104486104d9565b5b828203905092915050565b600061045f82610466565b9050919050565b600073ffffffffffffffffffffffffffffffffffffffff82169050919050565b6000819050919050565b600061049b82610486565b91507fffffffffffffffffffffffffffffffffffffffffffffffffffffffffffffffff8214156104ce576104cd6104d9565b5b600182019050919050565b7f4e487b7100000000000000000000000000000000000000000000000000000000600052601160045260246000fdfea26469706673582212202520f54722f6fe0a7b3dd064ddc7f6bd080b110f0157e7a7aab5792c53f0414964736f6c63430008000033",
  "immutableReferences": {},
  "source": "// SPDX-License-Identifier: MIT\npragma solidity ^0.8.0;\n\ncontract TransferETHInInstallments {\n    address public recipient;\n    uint256 public totalAmount = 50 ether;  // Total amount to be transferred\n    uint256 public installmentAmount = 16.6667 ether;  // Amount for each installment\n    uint256 public numInstallments = 3;  // Total installments\n    uint256 public installmentsMade = 0;  // Track how many installments have been made\n\n    // Constructor to initialize the recipient\n    constructor(address _recipient) {\n        recipient = _recipient;\n    }\n\n    // Function to transfer ETH in installments\n    function transferInstallments() public payable {\n        require(installmentsMade < numInstallments, \"All installments have already been transferred.\");\n\n        // Calculate the amount to transfer\n        uint256 amountToTransfer = installmentAmount;\n\n        // Ensure we are not transferring more than the remaining amount\n        if (installmentsMade == numInstallments - 1) {\n            amountToTransfer = totalAmount - (installmentsMade * installmentAmount);\n        }\n\n        // Perform the transfer\n        payable(recipient).transfer(amountToTransfer);\n        installmentsMade++;\n    }\n\n    // Helper function to check how many installments are left\n    function installmentsRemaining() public view returns (uint256) {\n        return numInstallments - installmentsMade;\n    }\n}\n",
  "sourcePath": "C:\\Users\\ioannis\\Desktop\\PaymentsDemo\\contracts\\Payments.sol",
  "compiler": {
    "name": "solc",
    "version": "0.8.0+commit.c7dfd78e.Emscripten.clang"
  },
  "schemaVersion": "3.4.16",
  "updatedAt": "2024-12-01T13:36:19.136Z",
  "networkType": "ethereum",
  "devdoc": {
    "kind": "dev",
    "methods": {},
    "version": 1
  },
  "userdoc": {
    "kind": "user",
    "methods": {},
    "version": 1
  }
}